{
    "contractName": "TokenSale",
    "abi": [
        {
            "anonymous": false,
            "inputs": [
                {
                    "indexed": true,
                    "internalType": "address",
                    "name": "depositTokenAddress",
                    "type": "address"
                },
                {
                    "indexed": false,
                    "internalType": "uint256",
                    "name": "depositTokenAmount",
                    "type": "uint256"
                },
                {
                    "indexed": true,
                    "internalType": "address",
                    "name": "purchaseTokenAddress",
                    "type": "address"
                },
                {
                    "indexed": false,
                    "internalType": "uint256",
                    "name": "purchaseTokenAmount",
                    "type": "uint256"
                }
            ],
            "name": "Purchase",
            "type": "event"
        },
        {
            "anonymous": false,
            "inputs": [
                {
                    "indexed": true,
                    "internalType": "address",
                    "name": "_purchaseTokenAddress",
                    "type": "address"
                },
                {
                    "indexed": true,
                    "internalType": "address",
                    "name": "_depositTokenAddress",
                    "type": "address"
                },
                {
                    "indexed": false,
                    "internalType": "uint256",
                    "name": "_depositTokenAmount",
                    "type": "uint256"
                }
            ],
            "name": "SetTokenPrice",
            "type": "event"
        },
        {
            "anonymous": false,
            "inputs": [
                {
                    "indexed": true,
                    "internalType": "address",
                    "name": "tokenAddress",
                    "type": "address"
                },
                {
                    "indexed": false,
                    "internalType": "uint256",
                    "name": "tokenSupplyAmount",
                    "type": "uint256"
                }
            ],
            "name": "SetTokenSupplyAmount",
            "type": "event"
        },
        {
            "anonymous": false,
            "inputs": [
                {
                    "indexed": true,
                    "internalType": "address",
                    "name": "_tokenAddress",
                    "type": "address"
                },
                {
                    "indexed": false,
                    "internalType": "uint256",
                    "name": "withdrawAmount",
                    "type": "uint256"
                }
            ],
            "name": "WithdrawFund",
            "type": "event"
        },
        {
            "inputs": [],
            "name": "addressManager",
            "outputs": [
                {
                    "internalType": "address",
                    "name": "",
                    "type": "address"
                }
            ],
            "stateMutability": "view",
            "type": "function"
        },
        {
            "inputs": [
                {
                    "internalType": "address",
                    "name": "_addressManager",
                    "type": "address"
                }
            ],
            "name": "initialize",
            "outputs": [],
            "stateMutability": "nonpayable",
            "type": "function"
        },
        {
            "inputs": [
                {
                    "internalType": "address",
                    "name": "_purchaseTokenAddress",
                    "type": "address"
                },
                {
                    "internalType": "uint256",
                    "name": "_purchaseTokenAmount",
                    "type": "uint256"
                }
            ],
            "name": "purchase",
            "outputs": [],
            "stateMutability": "nonpayable",
            "type": "function"
        },
        {
            "inputs": [
                {
                    "internalType": "address",
                    "name": "_purchaseTokenAddress",
                    "type": "address"
                },
                {
                    "internalType": "address",
                    "name": "_depositTokenAddress",
                    "type": "address"
                },
                {
                    "internalType": "uint256",
                    "name": "_depositTokenAmount",
                    "type": "uint256"
                }
            ],
            "name": "setTokenPrice",
            "outputs": [],
            "stateMutability": "nonpayable",
            "type": "function"
        },
        {
            "inputs": [
                {
                    "internalType": "address",
                    "name": "_tokenAddress",
                    "type": "address"
                },
                {
                    "internalType": "uint256",
                    "name": "_tokenSupplyAmount",
                    "type": "uint256"
                }
            ],
            "name": "setTokenSupplyAmount",
            "outputs": [],
            "stateMutability": "nonpayable",
            "type": "function"
        },
        {
            "inputs": [
                {
                    "internalType": "address",
                    "name": "",
                    "type": "address"
                }
            ],
            "name": "tokenPrice",
            "outputs": [
                {
                    "internalType": "address",
                    "name": "depositTokenAddress",
                    "type": "address"
                },
                {
                    "internalType": "uint256",
                    "name": "depositTokenAmount",
                    "type": "uint256"
                }
            ],
            "stateMutability": "view",
            "type": "function"
        },
        {
            "inputs": [
                {
                    "internalType": "address",
                    "name": "",
                    "type": "address"
                }
            ],
            "name": "tokenSupplyAmount",
            "outputs": [
                {
                    "internalType": "uint256",
                    "name": "",
                    "type": "uint256"
                }
            ],
            "stateMutability": "view",
            "type": "function"
        },
        {
            "inputs": [
                {
                    "internalType": "address",
                    "name": "_tokenAddress",
                    "type": "address"
                }
            ],
            "name": "withdrawFund",
            "outputs": [],
            "stateMutability": "nonpayable",
            "type": "function"
        }
    ],
    "bytecode": "608060405234801561001057600080fd5b50610e39806100206000396000f3fe608060405234801561001057600080fd5b50600436106100885760003560e01c806384ba3f691161005b57806384ba3f69146100f85780638de932221461014a578063c4d66de81461015d578063d7ea14241461017057600080fd5b80633ab76e9f1461008d5780634cb3dc2e146100bd5780635376f1a3146100d257806382baaa51146100e5575b600080fd5b6035546100a0906001600160a01b031681565b6040516001600160a01b0390911681526020015b60405180910390f35b6100d06100cb366004610c21565b61019e565b005b6100d06100e0366004610be7565b6102c9565b6100d06100f3366004610c62565b6104d7565b61012b610106366004610be7565b603360205260009081526040902080546001909101546001600160a01b039091169082565b604080516001600160a01b0390931683526020830191909152016100b4565b6100d0610158366004610c62565b6105e6565b6100d061016b366004610be7565b610782565b61019061017e366004610be7565b60346020526000908152604090205481565b6040519081526020016100b4565b603560009054906101000a90046001600160a01b03166001600160a01b031663481c6a756040518163ffffffff1660e01b815260040160206040518083038186803b1580156101ec57600080fd5b505afa158015610200573d6000803e3d6000fd5b505050506040513d601f19601f820116820180604052508101906102249190610c04565b6001600160a01b0316336001600160a01b03161461025d5760405162461bcd60e51b815260040161025490610d66565b60405180910390fd5b6001600160a01b0383811660008181526033602090815260409182902080546001600160a01b031916948716948517815560010185905590518481527f3391e919fba4cdc71072818dbd32c93d0fabee0645f55c1d46d89773e0c983cf910160405180910390a3505050565b603560009054906101000a90046001600160a01b03166001600160a01b031663481c6a756040518163ffffffff1660e01b815260040160206040518083038186803b15801561031757600080fd5b505afa15801561032b573d6000803e3d6000fd5b505050506040513d601f19601f8201168201806040525081019061034f9190610c04565b6001600160a01b0316336001600160a01b03161461037f5760405162461bcd60e51b815260040161025490610d66565b603554604080516361d027b360e01b815290516000926001600160a01b0316916361d027b3916004808301926020929190829003018186803b1580156103c457600080fd5b505afa1580156103d8573d6000803e3d6000fd5b505050506040513d601f19601f820116820180604052508101906103fc9190610c04565b6040516370a0823160e01b81523060048201529091506000906001600160a01b038416906370a082319060240160206040518083038186803b15801561044157600080fd5b505afa158015610455573d6000803e3d6000fd5b505050506040513d601f19601f820116820180604052508101906104799190610cb0565b905061048f6001600160a01b0384168383610812565b826001600160a01b03167f09ad672d4e7c4892da934d1051932ebe9ec4b6ec8c3f40d569176db3e93e5abe826040516104ca91815260200190565b60405180910390a2505050565b603560009054906101000a90046001600160a01b03166001600160a01b031663481c6a756040518163ffffffff1660e01b815260040160206040518083038186803b15801561052557600080fd5b505afa158015610539573d6000803e3d6000fd5b505050506040513d601f19601f8201168201806040525081019061055d9190610c04565b6001600160a01b0316336001600160a01b03161461058d5760405162461bcd60e51b815260040161025490610d66565b6001600160a01b03821660008181526034602052604090819020839055517fc429fc36ea545a96f5b60cb86cdb4c1a30b26accd1975f58b1c2f2616639656a906105da9084815260200190565b60405180910390a25050565b600260015414156106395760405162461bcd60e51b815260206004820152601f60248201527f5265656e7472616e637947756172643a207265656e7472616e742063616c6c006044820152606401610254565b600260019081556001600160a01b038084166000908152603360205260409020805492015491169081158015906106705750600081115b6106af5760405162461bcd60e51b815260206004820152601060248201526f496e76616c696420707572636861736560801b6044820152606401610254565b6106d033306106be8685610d95565b6001600160a01b03861692919061087a565b6040516340c10f1960e01b8152336004820152602481018490526001600160a01b038516906340c10f1990604401600060405180830381600087803b15801561071857600080fd5b505af115801561072c573d6000803e3d6000fd5b505060408051848152602081018790526001600160a01b038089169450861692507f3c0aac7ff88f2e47ddbaf56d3cfc506dff643228e74c58f6ef3e8a2322c6b22a910160405180910390a35050600180555050565b600054610100900460ff168061079b575060005460ff16155b6107b75760405162461bcd60e51b815260040161025490610d18565b600054610100900460ff161580156107d9576000805461ffff19166101011790555b6107e16108b8565b603580546001600160a01b0319166001600160a01b038416179055801561080e576000805461ff00191690555b5050565b6040516001600160a01b03831660248201526044810182905261087590849063a9059cbb60e01b906064015b60408051601f198184030181529190526020810180516001600160e01b03166001600160e01b03199093169290921790915261092c565b505050565b6040516001600160a01b03808516602483015283166044820152606481018290526108b29085906323b872dd60e01b9060840161083e565b50505050565b600054610100900460ff16806108d1575060005460ff16155b6108ed5760405162461bcd60e51b815260040161025490610d18565b600054610100900460ff1615801561090f576000805461ffff19166101011790555b6109176109fe565b8015610929576000805461ff00191690555b50565b6000610981826040518060400160405280602081526020017f5361666545524332303a206c6f772d6c6576656c2063616c6c206661696c6564815250856001600160a01b0316610a6d9092919063ffffffff16565b805190915015610875578080602001905181019061099f9190610c8e565b6108755760405162461bcd60e51b815260206004820152602a60248201527f5361666545524332303a204552433230206f7065726174696f6e20646964206e6044820152691bdd081cdd58d8d9595960b21b6064820152608401610254565b600054610100900460ff1680610a17575060005460ff16155b610a335760405162461bcd60e51b815260040161025490610d18565b600054610100900460ff16158015610a55576000805461ffff19166101011790555b600180558015610929576000805461ff001916905550565b6060610a7c8484600085610a86565b90505b9392505050565b606082471015610ae75760405162461bcd60e51b815260206004820152602660248201527f416464726573733a20696e73756666696369656e742062616c616e636520666f6044820152651c8818d85b1b60d21b6064820152608401610254565b843b610b355760405162461bcd60e51b815260206004820152601d60248201527f416464726573733a2063616c6c20746f206e6f6e2d636f6e74726163740000006044820152606401610254565b600080866001600160a01b03168587604051610b519190610cc9565b60006040518083038185875af1925050503d8060008114610b8e576040519150601f19603f3d011682016040523d82523d6000602084013e610b93565b606091505b5091509150610ba3828286610bae565b979650505050505050565b60608315610bbd575081610a7f565b825115610bcd5782518084602001fd5b8160405162461bcd60e51b81526004016102549190610ce5565b600060208284031215610bf957600080fd5b8135610a7f81610dee565b600060208284031215610c1657600080fd5b8151610a7f81610dee565b600080600060608486031215610c3657600080fd5b8335610c4181610dee565b92506020840135610c5181610dee565b929592945050506040919091013590565b60008060408385031215610c7557600080fd5b8235610c8081610dee565b946020939093013593505050565b600060208284031215610ca057600080fd5b81518015158114610a7f57600080fd5b600060208284031215610cc257600080fd5b5051919050565b60008251610cdb818460208701610dc2565b9190910192915050565b6020815260008251806020840152610d04816040850160208701610dc2565b601f01601f19169190910160400192915050565b6020808252602e908201527f496e697469616c697a61626c653a20636f6e747261637420697320616c72656160408201526d191e481a5b9a5d1a585b1a5e995960921b606082015260800190565b6020808252601590820152742737ba103837b635b0b6b4b7329036b0b730b3b2b960591b604082015260600190565b6000816000190483118215151615610dbd57634e487b7160e01b600052601160045260246000fd5b500290565b60005b83811015610ddd578181015183820152602001610dc5565b838111156108b25750506000910152565b6001600160a01b038116811461092957600080fdfea264697066735822122079cb5d7346fb4a6981cdc59a17675c5357db2eb49404a419e00ee325c82c891464736f6c63430008070033",
    "sourcePath": "/Volumes/WORK/Solidity/Polkamine-Contract/contracts/sale/TokenSale.sol",
    "compiler": {
        "name": "solc",
        "version": "0.8.7+commit.e28d00a7"
    },
    "functionHashes": {
        "addressManager()": "3ab76e9f",
        "initialize(address)": "c4d66de8",
        "purchase(address,uint256)": "8de93222",
        "setTokenPrice(address,address,uint256)": "4cb3dc2e",
        "setTokenSupplyAmount(address,uint256)": "82baaa51",
        "tokenPrice(address)": "84ba3f69",
        "tokenSupplyAmount(address)": "d7ea1424",
        "withdrawFund(address)": "5376f1a3"
    },
    "gasEstimates": {
        "creation": {
            "codeDepositCost": "728200",
            "executionCost": "760",
            "totalCost": "728960"
        },
        "external": {
            "addressManager()": "2327",
            "initialize(address)": "infinite",
            "purchase(address,uint256)": "infinite",
            "setTokenPrice(address,address,uint256)": "infinite",
            "setTokenSupplyAmount(address,uint256)": "infinite",
            "tokenPrice(address)": "4700",
            "tokenSupplyAmount(address)": "2579",
            "withdrawFund(address)": "infinite"
        }
    }
}